:020000040000fa
:080000000002040000000000f2
:020000040000fa
:0400080034030000bd
:020000040000fa
:04000c0034030000b9
:020000040000fa
:0400100034030000b5
:020000040000fa
:0400140034030000b1
:020000040000fa
:0400180034030000ad
:020000040000fa
:04001c0034030000a9
:020000040000fa
:0400200034030000a5
:020000040000fa
:0400240034030000a1
:020000040000fa
:04002800c80200000a
:020000040000fa
:04002c003403000099
:020000040000fa
:040030003403000095
:020000040000fa
:040034003403000091
:020000040000fa
:04003800340300008d
:020000040000fa
:04003c003403000089
:020000040000fa
:040040003403000085
:020000040000fa
:04004400f8020000be
:020000040000fa
:040048000e030000a3
:020000040000fa
:04004c003403000079
:020000040000fa
:040050003403000075
:020000040000fa
:040054003403000071
:020000040000fa
:04005800340300006d
:020000040000fa
:04005c003403000069
:020000040000fa
:040060003403000065
:020000040000fa
:040064003403000061
:020000040000fa
:04006800340300005d
:020000040000fa
:04006c003403000059
:020000040000fa
:040070003403000055
:020000040000fa
:040074003403000051
:020000040000fa
:04007800e80200009a
:020000040000fa
:04007c003403000049
:020000040000fa
:040080003403000045
:020000040000fa
:040084003403000041
:020000040000fa
:04008800340300003d
:020000040000fa
:04008c003403000039
:020000040000fa
:040090003403000035
:020000040000fa
:040094002403000041
:020000040000fa
:040098002c03000035
:020000040000fa
:04009c00f00200006e
:020000040000fa
:0400a0003403000025
:020000040000fa
:0400a4003403000021
:020000040000fa
:0400a800340300001d
:020000040000fa
:0400ac003403000019
:020000040000fa
:0400b0003403000015
:020000040000fa
:0400b4003403000011
:020000040000fa
:0400b800340300000d
:020000040000fa
:0400bc003403000009
:020000040000fa
:0400c0003403000005
:020000040000fa
:0400c4003403000001
:020000040000fa
:0400c80034030000fd
:020000040000fa
:0400cc0034030000f9
:020000040000fa
:0400d00034030000f5
:020000040000fa
:0400d40034030000f1
:020000040000fa
:0400d80034030000ed
:020000040000fa
:0400dc0034030000e9
:020000040000fa
:0400e00034030000e5
:020000040000fa
:0400e40034030000e1
:020000040000fa
:0400e80034030000dd
:020000040000fa
:0400ec0034030000d9
:020000040000fa
:0400f00034030000d5
:020000040000fa
:0400f40034030000d1
:020000040000fa
:0400f80034030000cd
:020000040000fa
:0400fc0034030000c9
:020000040000fa
:0401000034030000c4
:020000040000fa
:0401040034030000c0
:020000040000fa
:0401080034030000bc
:020000040000fa
:04010c0034030000b8
:020000040000fa
:0401100034030000b4
:020000040000fa
:0401140034030000b0
:020000040000fa
:0401180034030000ac
:020000040000fa
:04011c0034030000a8
:020000040000fa
:0401200034030000a4
:020000040000fa
:0401240034030000a0
:020000040000fa
:04012800340300009c
:020000040000fa
:04012c003403000098
:020000040000fa
:040130003403000094
:020000040000fa
:040134003403000090
:020000040000fa
:04013800340300008c
:020000040000fa
:04013c003403000088
:020000040000fa
:040140003403000084
:020000040000fa
:040144003403000080
:020000040000fa
:04014800340300007c
:020000040000fa
:04014c003403000078
:020000040000fa
:040150003403000074
:020000040000fa
:040154003403000070
:020000040000fa
:04015800340300006c
:020000040000fa
:04015c003403000068
:020000040000fa
:040160003403000064
:020000040000fa
:040164003403000060
:020000040000fa
:0402080034030000bb
:020000040000fa
:04020c0034030000b7
:020000040000fa
:0402100034030000b3
:020000040000fa
:0402140034030000af
:020000040000fa
:0402180034030000ab
:020000040000fa
:04021c0034030000a7
:020000040000fa
:0402200034030000a3
:020000040000fa
:04022400340300009f
:020000040000fa
:04022800340300009b
:020000040000fa
:04022c003403000097
:020000040000fa
:040230003403000093
:020000040000fa
:04023400340300008f
:020000040000fa
:04023800340300008b
:020000040000fa
:04023c003403000087
:020000040000fa
:040240003403000083
:020000040000fa
:04024400340300007f
:020000040000fa
:04024800340300007b
:020000040000fa
:04024c003403000077
:020000040000fa
:040250003403000073
:020000040000fa
:04025400340300006f
:020000040000fa
:04025800340300006b
:020000040000fa
:04025c003403000067
:020000040000fa
:040260003403000063
:020000040000fa
:04026400340300005f
:020000040000fa
:04026800340300005b
:020000040000fa
:04026c003403000057
:020000040000fa
:040270003403000053
:020000040000fa
:04027400340300004f
:020000040000fa
:04027800340300004b
:020000040000fa
:04027c003403000047
:020000040000fa
:040280003403000043
:020000040000fa
:04028400340300003f
:020000040000fa
:04028800340300003b
:020000040000fa
:04028c003403000037
:020000040000fa
:040290003403000033
:020000040000fa
:04029400340300002f
:020000040000fa
:04029800340300002b
:020000040000fa
:04029c003403000027
:020000040000fa
:0402a0003403000023
:020000040000fa
:0402a400340300001f
:020000040000fa
:0402a800340300001b
:020000040000fa
:0402ac003403000017
:020000040000fa
:0402b0003403000013
:020000040000fa
:0402b400340300000f
:020000040000fa
:0402b800340300000b
:020000040000fa
:0402bc003403000007
:020000040000fa
:0402c0003403000003
:020000040000fa
:0402c40034030000ff
:020000040000fa
:0402c80034030000fb
:020000040000fa
:0402cc0034030000f7
:020000040000fa
:0402d00034030000f3
:020000040000fa
:0402d40034030000ef
:020000040000fa
:0402d80034030000eb
:020000040000fa
:0402dc0034030000e7
:020000040000fa
:0402e00034030000e3
:020000040000fa
:0402e40034030000df
:020000040000fa
:0402e80034030000db
:020000040000fa
:0402ec0034030000d7
:020000040000fa
:0402f00034030000d3
:020000040000fa
:0402f40034030000cf
:020000040000fa
:0402f80034030000cb
:020000040000fa
:0402fc0034030000c7
:020000040000fa
:0403000034030000c2
:020000040000fa
:0403040034030000be
:020000040000fa
:0403080034030000ba
:020000040000fa
:04030c0034030000b6
:020000040000fa
:0403100034030000b2
:020000040000fa
:0403140034030000ae
:020000040000fa
:0403180034030000aa
:020000040000fa
:04031c0034030000a6
:020000040000fa
:0403200034030000a2
:020000040000fa
:04032400340300009e
:020000040000fa
:04032800340300009a
:020000040000fa
:04032c003403000096
:020000040000fa
:040330003403000092
:020000040000fa
:04033400340300008e
:020000040000fa
:04033800340300008a
:020000040000fa
:04033c003403000086
:020000040000fa
:040340003403000082
:020000040000fa
:04034400340300007e
:020000040000fa
:04034800340300007a
:020000040000fa
:04034c003403000076
:020000040000fa
:040350003403000072
:020000040000fa
:04035400340300006e
:020000040000fa
:04035800340300006a
:020000040000fa
:04035c003403000066
:020000040000fa
:040360003403000062
:020000040000fa
:04036400340300005e
:020000040000fa
:100400002f8520000e7f24000e01880000000000d0
:10041000000020000000e000020032000001200087
:100420002002880014000700910007000000e0008f
:1004300003003a0000c42100010020000200370040
:100440000000200001002000810f70000100320038
:1004500014000700000020000000e000020032004d
:100460000000020000000000541d02000000000017
:100470000040da000000fe004440a90060022000b5
:100480000000e0000300320000002000a00188000e
:100490004440a800000006008a1f78008b1f7800e7
:1004a0000000060091018800800478000000eb0045
:1004b0001a003700e284440032a0b4009905ba0063
:1004c000e284440032a0b4009906ba00e2844400f9
:1004d00032a0b4000006eb00476fde00fd07b2005b
:1004e000636ce10003003a00ebff07000000eb0043
:1004f0000a003700606ce10004003a00005deb0088
:100500008b05e900fdff3e00040037006168e10053
:10051000010032000086eb000b00070019c7ba008b
:100520001905ba000e04e00003003a000a00e000da
:10053000e0ff3a0000000600fe07b2009e018800be
:100540008a047800f5ff3700395dba008b05e900b1
:100550000c003200295dba008b05e900080032006a
:100560000c00e00003003a00e284440032a0b40032
:10057000f5ff370019ddba008b05e900faff3a00f4
:100580008904e800e184440032a0b40000000600c1
:10059000801f78000000fa008400a9001004800089
:1005a000610060000000e000040032001000200044
:1005b000104188008200a900020037002228ef00c5
:1005c0008200a8000080fa004f007800004006007a
:1005d0000000fa008680a9000080fa0000400600b2
:1005e0000000fa0087a0a9000080fa000040060081
:1005f000801f78000000fa00004080000000e80042
:1006000000408800100020002040880084e0a900fd
:100610000080fa004f00780000400600801f78003c
:100620000000fa00104080000000e8001040880040
:1006300010002000304088008500a9000080fa00ea
:100640004f007800004006000000fa008760a90013
:100650000080fa00004006000000fa008780a90030
:100660000080fa00004006000040da000000fe00b2
:100670000000050003f0a200889fbe008a9fbe0014
:100680008c1f7800fa000700010133006450e1007c
:100690004f0032006420e1005200320003826c00ff
:1006a00007003b000905d0000306d000820f54006c
:1006b0000c065d000200390002003200890178005a
:1006c000030678008582550004003d000003fd000c
:1006d0008103fd008502ea008b854200840f7200d1
:1006e00002003b0060001000e08018006011b800bc
:1006f0000005eb007a28e1000a00390006007800c6
:10070000c75ddd00f707b200878075002d00370058
:10071000828171000a017800610560008180d1004a
:100720000080d3008502e900f9ff3b000604400089
:100730008784480002003b0060041400e0841c0031
:100740000988a300070032008a817100828171004c
:10075000610164008904d1000884d3008b05e8009e
:10076000170037000978a30013003a000b00e000df
:10077000130034008b05e9000804440089844c0010
:100780000a4474000978a3000d003a000b00e00051
:10079000070034008b05e9000804440089844c00fc
:1007a00001003a000b0020000978a300f7ff320097
:1007b0000001eb0002003700828171000a0178001d
:1007c000700007000cf0a70001f0a000b90037008e
:1007d0006420e10002003a00838f6c00b90033000e
:1007e0000801be000200be00b2003700889fbe00b4
:1007f0008a9fbe008c1f78009d000700a400330074
:1008000003866c006450e1002e0032006420e10099
:10081000330032006150e1002f0032006120e1001e
:100820003100320085855500eb07b000090020003b
:1008300008042000050037000804440089844c00a7
:100840000a0031000603430087834b000001530078
:1008500081815b00f8ff33000203be000800a000a6
:100860000804440089844c00f6ff3900c639dd00d5
:100870008301730001003200130020008904d100bd
:100880000884d3000998a300050032000800a700df
:100890000300a0008904d1000884d3008b05e80080
:1008a0008904d1000884d3000001eb000281d2004a
:1008b0003400070001f0a1000cf0a70001f0a00037
:1008c0007c0037006420e1007e0032000801be0099
:1008d0000200be00f7ff37006120e100790032001e
:1008e0006000b800f3ff37000000200001f8270087
:1008f000f0ff370014002000a9003700f4ff2f009c
:10090000a70037000001be00440007000470a700e4
:1009100003f0a10003f8a30013003a006509b10039
:1009200010003200090035006928e100020035009e
:100930000100280000000500000040008180480000
:100940008502e900fcff3a0000000600f88f420033
:10095000050035008100d1000080d3008502e80049
:10096000fcff3a00000006008000eb0000000500dc
:100970004f89de0082017800a40037006011b800c2
:10098000b200370081002000618055000b003d005f
:100990000b00200061fe2f000100e1001d0034006b
:1009a00082817100610164008904d1000884d30050
:1009b0000000e800faff3a007100200061006400c6
:1009c000030070000200600009003200610444006e
:1009d000e0844c000988a500050032008b05e80082
:1009e0006808e10002003a008904d1000884d300bd
:1009f000f20f20000258e10005003d00c75ddd0058
:100a0000f907b20089807500080078000000060030
:100a10000bf827008b00780000000500c70ade00f5
:100a2000f107b200f50fb20008003200e1cf42003a
:100a3000020032000170a00024000500810f700048
:100a4000010032000408050044000500810f700019
:100a500002003a00140005008502e9000000400091
:100a600081c04800fcff3b000170a000240005008d
:100a70000004be00e9ff07000003be000405be003d
:100a80000200be00e5ff0700844f7500000006006d
:100a90000200be006450e100050036006420e10061
:100aa000020036000968a30001003a000800be00f9
:100ab0000160a0004f0678004f05be004f04be0045
:100ac00000000600f0ff2f00f1ff2700f9ff3700bc
:100ad000889fbe008a9fbe008c1f7800e4ff07003d
:100ae000ebff330003866c006450e1002400320009
:100af0006420e100270032006150e1002200320052
:100b00006120e100210032008b854200eb07b1003b
:100b10000134b800003ab8000804420089844a0051
:100b2000013ab8000030b8008880400009014a004e
:100b300004003300000040008180480002014900a9
:100b40008b05e900c909dd00830170000100320056
:100b500013002000c814de004814dd004709de0041
:100b60001200b200c808de000884700085ff07008c
:100b700001f0a1000cf0a70001f0a000cdff3700ac
:100b80006120e100cfff32000801be000200be007c
:100b9000f7ff37006150e100fcff3a00c9ff370062
:100ba000889fbe008a9fbe00841f7800b0ff0700a8
:100bb0004f00780011003300f0ff2f00838f6c008e
:100bc00006003b00040565000a00a7000800370086
:100bd00009f0a6001000200008003700820f540022
:100be000838f5c00030039001000200001003e00ec
:100bf0000000200009f0a7000000ea004f05be0039
:100c00004f04be000000e00000000600881f7800ce
:100c1000030478000300e00007003d0060001000be
:100c2000e080180060011900e081190002003b001b
:100c300001f02d00030037000400070008f0a700b2
:100c400001f0a0004f04780000000600889fbe005d
:100c50008a9fbe000082700004027100048271004d
:100c6000260032000004be000200be006011b80081
:100c70006b092000950220000182cf000a00390094
:100c80000541b1000082cf00070039000541b100e5
:100c90000982cf00040039000541b1000882cf006d
:100ca000010039000541b100054252001200320036
:100cb0000a003b0082817100610164008100d10063
:100cc0000080d3008984d3000884d3008b05e8001a
:100cd0000442e800f7ff3a00070037000804440028
:100ce00089844c0000004800818048008b05e900a1
:100cf0000442e900f9ff3a0022ff07004f05be0059
:080d00004f04be0000000600d4
:020000040000fa
:100d0800666600000641000000000000e0400000a8
:100d180000000000d040000000000000c0400000bb
:100d280000000000c842000000000000a0410000d0
:100d3800000000002041000000000000000000004a
:0c0d4800e7e70000e7e70000e70000001c
:020000040000fa
:100d54000000fa000041eb0011c0b30030c0b30042
:100d64004f0607000041eb0021c0b30030c0b300c0
:100d74004b0607000080fa00000006000000fa009d
:100d840012c0b30021c0b30030c0b3004406070052
:100d940012c0b30011c0b30030c0b3004006070056
:100da4000080fa00000006000400fa0020479800c2
:100db4000040eb00004f78002e4090000004e0005b
:100dc400150032002e409000e54f500012003e0006
:100dd4000040eb00104798000b0037001e409000c5
:100de4000080fb00110020000008dd008040780036
:100df4001e40780000c07000004f78001e40900034
:100e04000040e800104798009e4090002e4090005b
:100e140080cf5000f1ff39001e41780021c0b3009b
:100e240030c0b3001e0607000080fa000000060070
:100e34000400fa00204798000040eb00004f7800bf
:100e44002e4090000004e000150032002e40900077
:100e5400e54f500012003e000040eb0010479800a0
:100e64000b0037001e4090000080fb0011002000a2
:100e74000008dd00804078001e40780000c070004b
:100e8400004f78001e4090000040e8001047980092
:100e94009e4090002e40900080cf5000f1ff39001a
:100ea4001e41780011c0b30030c0b300fc05070038
:100eb4000080fa00000006000200fa00004f7800eb
:100ec4001e407800e24f5000080036001e407800b3
:100ed400e54f500005003e001ec0e90000417800c7
:100ee40031c0b30030c0b300ed0507000080fa0044
:100ef400000006000200fa00004f78001147980035
:100f04001e407800ef4f50000c003e001e40900041
:100f1400ef4f500009003e001e80fb004400dd003e
:100f2400804078001e40900000c0700000417800ae
:100f340041c0b30030c0b300d90507000080fa00f7
:100f4400000006000200fa00004f78001e407800fe
:100f54000004e000040035001e41780051c0b300d5
:100f640030c0b300ce0507000080fa000000060080
:100f74000400fa00004f78001147980022479800b7
:100f84001e4078000004e000030032001e40780098
:100f9400e14f500017003a001e409000e34f50000c
:100fa40014003e002e4090000004e00003003200d4
:100fb4002e409000e14f50000e003a001e80fb00ce
:100fc4004300dd00804078001e4090000080fb005c
:100fd400000040000040780080c070002e40900067
:100fe40000c070000041780061c0b30030c0b3009d
:100ff400ab0507000080fa00000006000000fa00bc
:101004000041eb008040eb00a0c0b300a405070042
:101014000080fa00000006000000fa000041eb0026
:10102400d1c1b30030c0b3009d0507000080fa00b1
:10103400000006000200fa00004f780000c2b3006e
:101044009e40780080cf500004003e001e4178008e
:1010540011c1b30030c0b300910507000080fa004d
:10106400000006000200fa00000f780001c1b3007e
:101074001e007800f00507000080fa00000006005a
:101084000200fa00000f7800a1c0b3001e0078002f
:10109400e90507000080fa00000006000400fa00d9
:1010a400004f7800110798001e4078000004e0000b
:1010b400080032001e407800e54f500005003e0055
:1010c4009e4078006ac04000804078001e00900076
:1010d400d90507000080fa00000006000200fa00ab
:1010e400000f78001e007800deff07001e00780065
:1010f400e3ff07000080fa00000006000000fa0089
:10110400a2c0b3008040eb0030c0b3006405070008
:10111400e05a210001002000390a07000080fa008b
:10112400000006000600fa008001eb001200200017
:10113400a1c0b30010c4b300100107001428ef00cd
:101144001628ef000040eb00004f78000500370040
:101154001e80fb00618220000041eb008270780059
:101164001e4fe8001e407800ff4f5000f8ff360085
:101174001068ef00e1004700426a280004000900fb
:10118400b25878001428ef001228ef00f0fe070090
:1011940010c0b30004ff070031c0b3000040eb00ef
:1011a40054ff07000040eb0021ff070050c0b300cc
:1011b40041ff070010c0b30062ff070010c0b30076
:1011c4009cff070012c0b30031c0b30010c0b300cd
:1011d40067ff07000e00e800c0ff070024000700b7
:1011e4002a000700c5ff0700100020009040880077
:1011f4000080fa00000006000000fa000001eb0085
:1012040071c0b30010c4b3009601070010002000a1
:10121400904088000080fa00000006000000fa00f8
:101224000041eb008040eb000040eb001c05070090
:101234000080fa00000006000000fa000041eb0004
:1012440081c0b30010c0b300150507000080fa0088
:10125400000006000000fa000041eb0071c1b30079
:1012640010c0b3000e0507000080fa00000006005d
:101274000000fa000041eb008040eb0070c0b300b6
:10128400070507000080fa00000006000000fa00cd
:101294000041eb008040eb0080c0b3000005070074
:1012a4000080fa00000006000200fa00004f7800f7
:1012b4001e4178008040eb0060c0b300f8040700d2
:1012c4000080fa00000006000200fa000041eb0072
:1012d4008040eb0010c0b300f1040700004f780019
:1012e4001e04a1001e4178008040eb0030c0b30012
:1012f400eb0407001200200071c0b30010c4b30057
:10130400580107000080fa00000006000200fa00fd
:10131400004f780090408000e10f500007003a0031
:10132400d3ff07001e407800dfff0700e6ff070039
:1013340020002000904088000a0037009040800080
:10134400e30f500007003a00abff0700c8ff070097
:101354001e407800d4ff0700dbff070020002000b8
:10136400904088000080fa00000006000200fa00a5
:101374000041eb008040eb0010c0b300c80407003c
:10138400004f78001e04a0001e4178008040eb004e
:1013940030c0b300c20407001200200071c0b300c3
:1013a40010c4b3002f0107000080fa0000000600fb
:1013b4000000fa0090408000e10f500003003a0062
:1013c400eaff070030002000904088000080fa0007
:1013d400000006000200fa00881f78000041eb00bc
:1013e40071c1b30010c0b300ad0407000080fb005e
:1013f40061006000000f78001300370010c8bf00c0
:101404000084fb008040eb0010c6b300800407009a
:101414006182200080707c000041eb0071c1b30048
:1014240010c0b3009e0407000080fb006100600050
:10143400000f780010c8bf000040e80010e8b700b3
:1014440010002000b04088001e0078000000e0007a
:1014540003003a0010c8bf00ff4f5000e7ff3600fa
:101464004f0478000080fa00000006000200fa0031
:10147400a0408000e10f50001f003a001428ef0044
:1014840090408000e20f50000c003a005aff070021
:101494000041eb008040eb000040eb0080040700bb
:1014a400004f78001e44a0001e41780071c0b300b4
:1014b40030c0b3007a0407000f003700904080006a
:1014c400e30f50000c003a004bff0700c1ff070078
:1014d4000041eb008040eb000040eb00700407008b
:1014e400004f78001e64a0001e41780071c0b30054
:1014f40030c0b3006a0407000080fa000000060050
:101504000000fa00aaff0700b0408000e10f50007d
:1015140013003a0010c8bf000080fb000000e9007f
:1015240061822000e140780030c5b30080cf5000d4
:1015340009003a00a1c0b30010c4b30020010700a1
:101544000080fb000080ea0000017800a1c0b30025
:1015540010c4b300c30007001068ef001628ef00a2
:101564000080fa00000006000000fa0030c5b30055
:1015740066ff07000080fa00000006000600fa007b
:10158400004f78001147980012079800230798002d
:101594001e80fb0021042000810f50003f00320018
:1015a40031042000810f5000720032001104200029
:1015b400810f5000a8003a001e4090000080fb00fc
:1015c400ea0f500033003e00110020000008dd0047
:1015d400c1792000810060000100e0001f003a0092
:1015e400630060000000e00001003a0029003700b9
:1015f4001e4090000080fb00110020000008dd0068
:101604008080ea0060198000808060001e409000a5
:101614000080fb001e0190000010dd00010070003e
:10162400601988001e4090000080fb00110020001b
:101634000008dd008080ea000016800080806000e1
:101644001e4090000080fb002e0190000010dd0081
:1016540001007000001688000f0037001e40900043
:101664000080fb00110020000008dd008080ea00fb
:1016740000168000808060001e4090000080fb0007
:101684002e0190000010dd0001007000001688009b
:101694000100370000000000700037001e40900079
:1016a4000080fb000000e00030003500e30f500034
:1016b40003003400ef0f50002c003c001d003700e5
:1016c4001e4090000080fb000080e8001100200014
:1016d4000008dd008080ea006019800080806000de
:1016e4001e4090000080fb000080e8001e01900076
:1016f4000010dd0001007000601988001e40900099
:101704000080fb00110020000008dd008080ea005a
:1017140040168000808060001e4090000080fb0026
:101724002e0190000010dd000100700040168800ba
:101734000f0037001e4090000080fb0011002000c5
:101744000008dd008080ea00401680008080600090
:101754001e4090000080fb002e0190000010dd0070
:1017640001007000401688000100370000000000ee
:101774003a0037001e4090000080fb000000e000ab
:1017840030003500e20f500003003400e90f500030
:101794002e003c001d0037001e4090000080fb001e
:1017a40066004000110020000008dd008080ea008f
:1017b40060198000808060001e4090000080fb0063
:1017c400660040001e0190000010dd000100700062
:1017d400601988001e4090000080fb00110020006a
:1017e4000008dd008080ea008016800080806000b0
:1017f4001e4090000080fb002e0190000010dd00d0
:101804000100700080168800110037001e4090000f
:101814000080fb00110020000008dd008080ea0049
:1018240080168000808060001e4090000080fb00d5
:101834002e0190000010dd00010070008016880069
:101844000300370000000000010037000000000022
:101854000000000001003700000000000080fa00d2
:10186400000006000400fa00004f780011479800b9
:10187400120798001e80fb0021042000810f5000f5
:101884002100320031042000810f50003300320067
:1018940011042000810f500046003a001e409000c1
:1018a4000080fb00ea0f500015003e0011002000ec
:1018b4008008dd00f0792000008060000000e00076
:1018c40001003a000e0037001e4090000080fb002b
:1018d400110020000008dd008080ea00201680004e
:1018e400808060001e4090000080fb001e0190007c
:1018f4000010dd0001007000201688000100370090
:10190400000000002c0037001e4090000080fb0007
:1019140060004000ef0f50000e003e001e4090009b
:101924000080fb00110020000008dd008080ea0038
:1019340060168000808060001e4090000080fb00e4
:101944001e0190000010dd00010070006016880088
:101954000100370000000000170037001e4090000f
:101964000080fb0060004000e90f50000e003e00c4
:101974001e4090000080fb00110020000008dd00e4
:101984008080ea00a0168000808060001e409000e5
:101994000080fb001e0190000010dd0001007000bb
:1019a400a0168800010037000000000000000000bd
:1019b40001003700000000000080fa00000006006b
:1019c4000200fa00004f7800114798001e80fb00c7
:1019d40021042000810f5000170032003104200040
:1019e400810f50002000320011042000810f5000ac
:1019f40029003a001e4090000080fb00ea0f5000ce
:101a040027003e00110020008008dd00f07920004e
:101a1400008060000000e000230032001116800006
:101a24001e4090000080fb000008de0000407800ab
:101a340061406000220037001e4090000080fb00df
:101a440060004000ef0f500019003e005116800066
:101a54001e4090000080fb000008de00004078007b
:101a640061406000160037001e4090000080fb00bb
:101a740060004000e90f50000f003e009116800006
:101a84001e4090000080fb000008de00004078004b
:101a9400614060000a0037000000000007003700c2
:101aa40000000000050037000000000003003700bc
:101ab40000000000010037000000000000c0eb003f
:101ac4000080fa00000006000400fa00004f7800cd
:101ad400110798001e80fb0021042000810f500094
:101ae4000900320031042000810f50000900320047
:101af40011042000810f50000a003a009e0090005b
:101b040021168800080037009e00900061168800a6
:101b1400050037009e009000a11688000000000018
:101b240001003700000000000080fa0000000600f9
:101b34000200fa00004f78001e80fb002104200000
:101b4400810f50000800320031042000810f500042
:101b54000700320011042000810f500006003a00f3
:101b6400101680000500370050168000030037006f
:101b740090168000010037000000eb000080fa009e
:101b8400000006000000fa0041168000f03f280023
:101b9400008060004016880051168000f03f280045
:101ba4000080600050168800010e8000f0f02f00c5
:101bb400008060000040a000000e8800000e80003d
:101bc400c000b300000e8800010e8000c0ff2f008b
:101bd40000806000000e8800c221ef00c941a90006
:101be400c921a900c901a800c8c1a800c8a1a800aa
:101bf400c881a800c801a900e134800000fe2f00bc
:101c040000806000f000b300e0348800c841a80000
:101c1400c1e1a80040012000190007000080fa007b
:101c2400000006000000fa00d0c2a900d0e2a9001a
:101c3400d2c2a900d2e2a900012e8000f0f02f0048
:101c4400008060000040a000002e8800002e80006c
:101c5400c000b300002e8800012e8000c0ff2f00ba
:101c640000806000002e8800c225ef00c905a9008d
:101c7400c805a800c1e5a8000080fa00000006001d
:101c84000400fa00100798009e00900090032000c2
:101c94000088b90000007800000fe9001e007800f9
:101ca4000000e000020035009e007800210e88004c
:101cb4000080fa00000006000400fa0010079800f3
:101cc4009e009000900320000088b9000000780076
:101cd400000fe9001e0078000000e000020035005b
:101ce4009e007800212e88000080fa000000060083
:101cf4000800fa00881f7800100798002107980050
:101d040062479800200e80008000e80090032000c5
:101d140000017800110009008280d800000f7800cb
:101d24006011b8001e009000ae009000f0fa0700a9
:101d34000000e0000f003a006e4090000080fb00bd
:101d4400e20f500006003200e30f5000060032009c
:101d5400e10f50005a003a00d621ef005b00370033
:101d6400d821ef0059003700da21ef00000000000d
:101d74005600370018c0b30002002000832c240052
:101d84001e009000ae009000d9fa07000000e000a9
:101d9400010034000044eb000804e0004b00320072
:101da4006e4090000080fb00e20f500019003200ea
:101db400e30f50002c003200e10f500042003a00c3
:101dc4001e0078008000eb00ebfa07000200200000
:101dd400432624003dfb070002002000832c24003e
:101de40081fa07000001be0022fa07001e019000dc
:101df400ae01900035fb07000200200003f8230029
:101e04001bfa0700befa070000007800b00e880035
:101e14002e0037001e0078008000eb00d6fa070081
:101e2400020020004326240028fb070002002000b3
:101e3400832c24006cfa07000001be000dfa070091
:101e44001e019000ae01900020fb0700020020005c
:101e540003f8230006fa0700a9fa07000000780037
:101e6400c00e8800190037001e0078008000eb00c7
:101e7400c1fa0700020020004326240013fb0700d8
:101e840002002000832c240057fa07000001be0042
:101e9400f8f907001e019000ae0190000bfb07004b
:101ea4000200200003f82300f1f9070094fa070068
:101eb40000007800d00e8800000000000300370006
:101ec4000000000001003700000000004f0478000b
:101ed4000080fa00000006000600fa00881f78005f
:101ee4001007980021079800200e80008000e80069
:101ef4009003200000017800110009008280d800be
:101f0400000f78006011b8001e009000ae00900031
:101f140077fa07000000e00002003a00d625ef003f
:101f24001f00370018c0b30002002000832c2400d7
:101f34001e009000ae0090006dfa07000000e00063
:101f4400010034000044eb000804e00014003200f7
:101f54001e0078008000eb0087fa070002002000d2
:101f640043262400d9fa070002002000832c240011
:101f74001dfa07000001be00bef907001e01900013
:101f8400ae019000d1fa07000200200003f82300fc
:101f9400b7f907005afa070000007800b02e88004d
:101fa4004f0478000080fa00000006000600fa00e2
:101fb400000f780012079800230798001e0078008d
:101fc4002fff070012c0b3001e009000ae00900067
:101fd40047ff070022c0b3001e009000ae0090002f
:101fe40043ff070032c0b3001e009000ae00900013
:101ff4003fff07000080fa00000006000600fa0018
:10200400000f780012079800230798001e0078003c
:1020140029ff07001e009000ae009000aeff0700ed
:102024000080fa00000006000000fa007b020700ae
:1020340000017800d0cc2c000010b8004508de0068
:10204400810220000180b9000000780000005100e6
:10205400740040008000eb0047fa0700304288001b
:1020640041428800a08420008040eb0001487800b1
:102074000000eb00704288000000eb008042880002
:1020840028fc0700d70507000000eb00dd0507006a
:102094003042800041428000e2050700a0c5b30041
:1020a400380607000080fa00000006000200fa006b
:1020b4004b050700004f78001e4078000004e00044
:1020c4007c0032001e80fb006101b9000080eb003f
:1020d4008080eb000200400083804800e20320007f
:1020e40003002000820f5000838f580055003e00eb
:1020f40000600100440037005200370042003700fe
:102104003e0037004f0037003c0037004d003700d9
:10211400370037004b0037004a00370049003700ca
:1021240033003700470037004600370045003700ca
:102134003b003700430037004200370041003700be
:10214400400037003f0037003e0037003d003700b5
:10215400300037003b0037003a00370039003700c1
:1021640038003700370037003600370035003700b5
:102174002e003700330037003200370031003700bb
:10218400300037002f0037002e0037002d003700b5
:102194002c0037002b0037002a00370029003700b5
:1021a40028003700270037002600370025003700b5
:1021b4001b003700230037002200370021003700be
:1021c400200037001f0037001e0037001d003700b5
:1021d4001c0037001b0037001a00370019003700b5
:1021e40018003700170037001600370012003700b8
:1021f400a0c5b3001ee8b70025003700e0c6b30051
:102204001ee8b7002200370080c7b3001ee8b700fd
:102214001f00370000c5b3001ee8b7001c003700dc
:10222400c0c3b3001ee8b70019003700c0c3b30031
:102234001ee8b70016003700a0c5b3001ee8b700bb
:102244001300370070428000e20f500010003a0083
:1022540060428000e10f500008003200e10f50009e
:1022640003003900e20f5000070032000800370075
:10227400c0c3b3001ee8b70005003700a0c5b30013
:102284001ee8b7000200370080c7b3001ee8b7009d
:10229400e18120009140780024c8bf0080cf500025
:1022a400040032001ec8bf00b60507001ec8bf00e8
:1022b40024e8b700f30507000080fa0000000600d8
:1022c4000200fa00c6040700004f78001e407800a0
:1022d4000004e0000a003a00e04080000000e00052
:1022e40007003200a0842000104078008040e800fd
:1022f400a0842000014878001c28ef001200370059
:10230400f0c3b3009e40780080cf50000c003a0028
:102314001000200070428800c0010700000178000e
:10232400b0aa2a000010b8000100d1006300b9006f
:10233400000078000000510060428800020037006d
:1023440010002000e04088000080fa000000060031
:102354000200fa0000c1b300004f78006042800020
:1023640080407800200020000008dd001e4f70002f
:10237400a0842000104078001e4f70001e4078009a
:10238400690207006e020700630207001c030700ce
:1023940093040700104798009e409000f0c3b300d8
:1023a40080cf50001b003a0060428000e10f5000d3
:1023b40008003200e10f500003003900e20f500022
:1023c4000700320008003700c0c3b3006d050700e2
:1023d40005003700a0c5b3006a05070002003700f6
:1023e40080c7b3006705070080428000e10f5000fa
:1023f40003003a006000b8000a0507000500370032
:102404003042800041428000060507002000200081
:10241400704288000080fa00000006000200fa0002
:102424006f040700004f78001e4078000004e000ad
:1024340006003a000040eb00104798001e40900050
:10244400390207006000b800f60407000080fa00b3
:10245400000006000000fa0070428000e10f500006
:1024640007003200e10f500003003900e20f500072
:10247400050032000600370091ff07000400370012
:10248400b3ff070002003700e4ff0700000000006c
:102494000080fa00000006000000fa00001280002c
:1024a4004600de00614060000080fb000080fa000e
:1024b400000006000000fa00001280000000d100b5
:1024c400614060000080fb000080fa00000006000c
:1024d4000000fa00001280000040780061406000b3
:1024e4000080fb000080fa00000006000000fa00f3
:1024f4004022ef0001368000f00f2e0000806000c3
:1025040000b0a0000036880041358000f00f2e0096
:10251400008060000080a00040358800c822a90027
:102524002c63a8004135800000fe2f00008060006d
:1025340040358800c802a8002c43a800113680004a
:1025440000fe2f00008060009000b3001036880069
:10255400c842a9002c83a800cc42a80011368000f0
:10256400f00f2e00808060000070200001007000d9
:1025740010368800c862a9002ca3a800c0e2a900f4
:10258400d0c2a800b0132000101288004422ef002b
:102594000012800000f0a000001288000080fa0001
:1025a400000006000000fa000012800000f0a10004
:1025b400001288000080fa00000006000200fa0001
:1025c400004f7800bbff07000000e0000c003a0059
:1025d400ca42a9001e80fb004012880000000000cf
:1025e400b4ff07000000e000fdff3a000000000017
:1025f400b7ff07000000e000fdff3200ca42a80058
:1026040040128000004078000080fa0000000600bc
:102614000400fa002047980031479800a5ff0700fe
:102624000000e0001a003a00ca42a9002e409000bf
:102634000080fb0040128800000000009dff07009e
:102644000000e000fdff3a0000000000a0ff0700ca
:102654000000e000fdff320040128000004f7800cf
:102664003e4090000080fb00401288000000000003
:1026740090ff07000000e000fdff3a0000000000aa
:1026840093ff07000000e000fdff3200ca42a800eb
:1026940040128000004078000080fa00000006002c
:1026a4000400fa00004f7800114798002247980070
:1026b4001e80fb00e60f50001c003200e60f5000a5
:1026c40007003c00e10f500014003200e30f5000fb
:1026d4000d0032000000e000080032002100370045
:1026e400e80f500018003200e80f500013003500c6
:1026f400ea0f5000170032001a00370000c0eb0048
:10270400aeff0700190037001e4090000054a000df
:10271400ae409000beff0700140037008040eb007d
:102724001e409000baff070010003700ae40900032
:1027340000cab300b6ff07000c00370010ceb30088
:102744009eff07000900370020ceb3009bff07005f
:102754000600370031c7b30000c5b300acff070063
:102764000200370000c0eb0094ff07000080fa006d
:10277400000006000600fa00100798004147980080
:102784004cff07000000e00027003a00ca42a900fd
:102794004e4090000080fb004012880000000000c2
:1027a40044ff07000000e000fdff3a0000000000c5
:1027b40047ff07000000e000fdff320040128000e8
:1027c400804078001e009000014878000040eb0033
:1027d400004f7800100037004822ef00000000008e
:1027e40034ff07000000e000fdff3a000000000095
:1027f40037ff07000000e000fdff32001e80fb00f1
:102804009e009000008040004112800081407800ca
:10281400014878001e4fe8001e407800e44f500045
:10282400edff3600ca42a800401280000040780044
:102834000080fa00000006000600fa001007980065
:10284400414798001bff07000000e00025003a0004
:10285400ca42a9004e4090000054a0000080fb0032
:10286400401288000000000012ff07000000e00092
:10287400fdff3a000000000015ff07000000e00023
:10288400fdff32000040eb00004f780011003700dc
:1028940040128000104798001e80fb009e009000ac
:1028a40000804000104078000080fb004012880047
:1028b40000000000fffe07000000e000fdff3a00fa
:1028c4000000000002ff07000000e000fdff3200ee
:1028d4001e4fe8001e407800e44f5000ecff360025
:1028e400ca42a80040128000004078000080fa002c
:1028f400000006000000fa000621ef0011e1a90023
:1029040011a1a90010c1a90081088000f0fc2f00ca
:10291400008060000040a000800888001061a900c9
:102924001021a90031058000f0ff2800008060001c
:1029340000c0a0003005880084e0a90094e0a8004d
:102944000080fa00000006000000fa008008800001
:1029540000f0a000800888000080fa000000060053
:102964000000fa008008800000f0a10080088800c0
:102974000080fa00000006000000fa000621ef00c3
:102984000080fa00000006000200fa00000f780040
:102994009e007800310888000080fa0000000600dc
:1029a4000200fa00000f78009e0078006108880099
:1029b4000080fa00000006000000fa00e01c20007d
:1029c400600888000080fa00000006000200fa0097
:1029d400004f78001e4078000004e0000d00320033
:1029e400d0c8b3009e40780080cf500009003e005c
:1029f4001e80fb008000eb00dff7070062302b0035
:102a0400d3b0230078f70700bdf707000000780073
:102a1400600888000080fa00000006000000fa0048
:102a2400300880000080fa00000006000000fa0070
:102a34000a21ef0013e1a90013a1a90012c1a90002
:102a440091088000000320000100700090088800b5
:102a54001221a9004105800080ff2f000080600042
:102a64000010a000400588008500a9009500a8007a
:102a74000080fa00000006000000fa0090088000c0
:102a840000f0a000900888000080fa000000060012
:102a94000000fa009008800000f0a100900888006f
:102aa4000080fa00000006000000fa000a21ef008e
:102ab4000080fa00000006000200fa00000f78000f
:102ac4009e007800510888000080fa00000006008b
:102ad4000200fa00000f78009e0078007108880058
:102ae4000080fa00000006000200fa00000f7800df
:102af4001e0078000000e0000d003200701b210071
:102b04009e007800808f500009003e001e0078006f
:102b14008000eb0098f70700b28b2b00d3d823007a
:102b240031f7070076f70700000078007008880086
:102b34000080fa00000006000000fa00500880003f
:102b44000080fa00000006000200fa00004f78003e
:102b54001421ef001fe1a9001fa1a9001ec1a900b3
:102b64009e40780063c060000080fb00630060004a
:102b74004400dd00f2088000f1fc2f0081006100b8
:102b840001007000f00888001e21a9008105800062
:102b9400f0ff28000080600000e0a00080058800ad
:102ba4008760a9009760a8000080fa000000060072
:102bb4000000fa00f008800000f0a000f00888008f
:102bc4000080fa00000006000000fa00f00880000f
:102bd40000f0a100f00888000080fa000000060060
:102be4000000fa001421ef000080fa000000060043
:102bf4000200fa00000f78009e007800a108880007
:102c04000080fa00000006000200fa00000f7800bd
:102c14009e007800d10888000080fa0000000600b9
:102c24000000fa00a00880000080fa0000000600fe
:102c34000200fa00004f78001821ef0021e1a900fa
:102c440021a1a90020c1a9009e40780063c06000b2
:102c54000080fb00630060004400dd000209800086
:102c6400f1fc2f0081006100010070000009880060
:102c74002021a9009105800080ff2f0000806000c2
:102c84005000b300900588008780a9009780a800b1
:102c94000080fa00000006000000fa00000980002d
:102ca40000f0a000000988000080fa00000006007f
:102cb4000000fa000009800000f0a100000988006b
:102cc4000080fa00000006000000fa001821ef005e
:102cd4000080fa00000006000200fa00000f7800ed
:102ce4009e007800c10888000080fa0000000600f9
:102cf4000200fa00000f78009e007800e1088800c6
:102d04000080fa00000006000000fa00c0088000fd
:102d14000080fa00000006000000fa00d3f9070062
:102d24000080fa00000006000200fa00004f78005c
:102d34001e40780075f907000080fa0000000600c4
:102d44000000fa009af907000080fa00000006006b
:102d54000600fa00404798004e4090000080fb00b7
:102d64000000ea004f00de00004f78000040eb0056
:102d7400104798004e4090000080fb0070006000f7
:102d84004480de00204798002e4090000004e000bc
:102d9400030032000000eb008042880096003700f8
:102da400a0842000104078000080fb00e10f500058
:102db4002b003200e10f500003003c000000e00053
:102dc400060032008c003700e20f5000450032004c
:102dd400e30f500064003200870037006042800037
:102de400e10f500014003200e10f500003003900dd
:102df400e20f5000160032007f0037001e407800ba
:102e0400e24f500006003a001e409000e14f50008f
:102e1400060032001e409000e24f500003003200d2
:102e24001e407800e34f500002003a0010002000da
:102e340080428800090037001e407800e34f5000ac
:102e440002003a001000200080428800030037008e
:102e54000000eb00804288006700370066003700fe
:102e640060428000e10f500014003200e10f500076
:102e740003003900e20f5000160032005e003700f4
:102e84001e407800e34f500006003a001e409000b8
:102e9400e14f5000060032001e409000e24f500007
:102ea400030032001e4078000004e00002003a00f3
:102eb4001000200080428800090037001e4078007e
:102ec4000004e00002003a00100020008042880064
:102ed400030037000000eb00804288004600370002
:102ee4004500370060428000e10f500014003200ba
:102ef400e10f500003003900e20f500016003200c9
:102f04003d0037001e4078000004e00006003a004f
:102f14001e409000e14f5000060032001e40900019
:102f2400e24f5000030032001e407800e14f500091
:102f340002003a0010002000804288000900370097
:102f44001e407800e14f500002003a0010002000bb
:102f540080428800030037000000eb0080428800b4
:102f6400250037002400370060428000e10f500044
:102f740014003200e10f500003003900e20f50004a
:102f8400160032001c0037001e407800e14f50004c
:102f940006003a001e409000e14f50000600320047
:102fa4001e409000e24f5000030032001e407800a3
:102fb400e24f50000c003a001000200080428800cc
:102fc4000c0037001e407800e24f500008003a0021
:102fd4001000200080428800060037000000eb004b
:102fe4008042880004003700000000000100370020
:102ff40000000000000000000080fa00000006004d
:103004000200fa00b0408000e10f50000e003a00c8
:103014001628ef000040eb00004f78000500370051
:103024001e80fb00618220006140780048ff070099
:103034001e4fe80010c8bf009e40780080cf5000ab
:10304400f7ff39001068ef000080fa000000060066
:103054000000fa0058fe070040062000a2fe070008
:103064000828ef000a28ef000c28ef000e28ef00d4
:103074000428ef000628ef000028ef000228ef00e4
:1030840031fe07007cfe070001003700000000004d
:1030940020408000e10f500010003a000428ef00a7
:1030a40000408000e50f500003003a0010002000ab
:1030b400404088000800370000408000e90f5000bd
:1030c400050036000028ef00100020004040880072
:1030d4001000200050408800140207004040800087
:1030e400e10f500002003a000828ef001202070026
:1030f40050408000e10f500002003a000a28ef001f
:103104001002070030408000e10f500010003a0028
:103114000628ef0010408000e50f500003003a003d
:103124001000200060408800080037001040800034
:10313400e90f5000050036000228ef0010002000bf
:1031440060408800100020007040880001020700e1
:1031540060408000e10f500002003a000c28ef00ac
:10316400ff01070070408000e10f5000c7ff3a00e4
:103174000e28ef0000020700c5ff37000000fa0028
:10318400601980000040a00060198800c842a900ae
:10319400c0e2a900d0c2a9000080fa000000060025
:1031a4000000fa00601680004200de00614060000a
:1031b40000c0ea00614060000080fb006100600024
:1031c4004200dd00511680000120a10001007000c2
:1031d400501688000080fa00000006000000fa0083
:1031e400201680004700de006140600000c0ea0055
:1031f400614060000080fb00610060004700dd006a
:10320400111680000170a1000100700010168800e2
:103214000080fa00000006000000fa00a0168000fa
:103224004600de006140600000c0ea0061406000ca
:103234000080fb00610060004600dd009116800004
:103244000160a10001007000901688000080fa005f
:10325400000006003600fa00889fbe00f600470012
:10326400426828000f000900b218780010ae270049
:10327400410424001007980021079800f0ff200063
:10328400300798000040eb00370107004007980022
:103294004e0090008000eb00b7f507000004be006c
:1032a4003e0090008000eb00b3f507000001be0073
:1032b4000800be004cf507001e019000ae0190000e
:1032c40002f60700500798006107980002002000ea
:1032d400030824005e009000ee009000fbf5070058
:1032e40050079800610798000040eb00004f7800f9
:1032f40010c0b300004f78000f0037001e80fb00a1
:103304004200dd00f6004700008040001000be00cf
:1033140018c0b3005e019000ee01900074f5070040
:103324000000e000010035000044eb000804e00068
:1033340005003a001e4fe8001e407800e34f50009d
:10334400eeff360001003700000000001e40780048
:10335400e44f500002003a006000b8003800370023
:103364001e80fb000000e900640040004200dd0014
:10337400f6004700008040001002be001e80fb00e3
:10338400640040004200dd00f60047000080400079
:103394001000be000001be000400be00b4f407002b
:1033a4000004be001e80fb000000e9004200dd00b6
:1033b400f6004700008040001002be001e80fb00a3
:1033c4004200dd00f6004700008040001000be000f
:1033d4000001be000400be00a5f407000001be0009
:1033e4000800be0000f5070070079800010f980060
:1033f4001e80fb000000e9004200dd00f6004700eb
:10340400008040001000be005e019000ee019000bc
:1034140097f407007e0190008e099000abf5070039
:103424000001be0000002000812c240090f407005d
:10343400100f9800210f98001e089000ae0890000d
:103444004f04be000080fa00000006000000fa00ed
:1034540081e0a80070c0b3000600070060c0b3009c
:103464001400070050c0b300250007000080fa00d4
:10347400000006000200fa00004f78009e40780029
:1034840067c060000080fb006700600022058000c8
:1034940081ff2f0081006100010070002005880079
:1034a4008400a9009400a8008200a8000080fa000b
:1034b400000006000200fa00004f7800013480008a
:1034c40000f0210001007000003488009e40780064
:1034d40067c060000080fb00670060007205800028
:1034e40081ff2f00810061000100700070058800d9
:1034f4008680a9009680a8000080fa0000000600db
:103504000200fa00004f78001134800000fe2f0002
:10351400008060006001b300103488009e40780091
:1035240067c060000080fb00670060004400dd00ad
:1035340092058000f1f82f00810061000100700005
:103544009005880087a0a90097a0a8008240a80041
:103554000080fa00000006000400fa00100798003a
:103564000040eb00004f78000040eb00004f780073
:10357400060037009e019000120020009e40780053
:1035840030c4b300fdf707001e4fe8001e4078006a
:10359400e54f5000f7ff36000080fa0000000600f7
:1035a4000200fa000040eb00004f78000040eb00fe
:1035b400004f780005003700120020009e4078007c
:1035c40030c4b300a7f807001e4fe8001e4078007f
:1035d400e54f5000f8ff36000080fa0000000600b6
:1035e4000600fa000000eb00000f78000040eb003a
:1035f40020479800f0032000200798000000eb000b
:10360400d5ff0700e6ff070050022000010020005c
:10361400fb00070010002000cfff0700d039200076
:1036240001002000f600070030c4b30040f9070091
:10363400000f78001e007800804078002e00900073
:103644000040780000c06000204798002e409000a1
:103654000080fa00000006000000fa00d122a80051
:10366400c9e2a800e134800000fe2f000080600061
:10367400f000b300e0348800e1348000f00f2e0045
:10368400808060000090210001007000e034880018
:10369400010f800070fe2f00008060000040a00039
:1036a400000f8800010f80000070200001007000ee
:1036b400000f880000d02700200f88000080fa0047
:1036c400000006000000fa00200f80000080fa00cd
:1036d400000006000000fa0000d02700200f880038
:1036e4000080fa00000006000400fa00f5ff07005d
:1036f400000f7800004180001e0050001007980061
:10370400f4ff07009e007800014188001e0190002c
:10371400b04721000090b900c388de004f90de005e
:1037240000805000100798001e0090000080fa00ee
:10373400000006000000fa00c002a800c022a80091
:103744002c03a9002c23a9002023ef002223ef003f
:103754002143a80000f021002019880021e3a800db
:103764000080fa00000006000200fa00004f780012
:1037740040198000004078007f4060008080fb009a
:103784001e80fb00808f5000090032009e407800ac
:103794007fc060000080fb007f0060004219800051
:1037a40001fe2f00810061000100700040198800b3
:1037b4002023a800900b20000100200090000700a7
:1037c4002023a900000000000019800061006000af
:1037d4000000e000fcff3200001880000080fa00c6
:1037e400000006000000fa008001eb001200200037
:1037f40091c0b30010c4b30060f707000080fa0062
:10380400000006000200fa00000f78001e01780094
:1038140091c0b30010c4b30012f807000080fa008e
:10382400000006000400fa00881f7800008fbe0024
:1038340018c0b30002002000832c24001e00be0028
:103844002df407000000e00001003c000044eb0000
:103854000804e0000300320000002000812c240052
:10386400008fbe0022c0b3001e00be0020f9070076
:0c3874004f0478000080fa0000000600fd
:020000040000fa
:10388000200800000200000002000000800c000080
:1038900022080000020000000000000000080000f4
:1038a00008000000000000000808000008000000f8
:1038b00000000000180800000400000000000000e4
:1038c000460800000c000000000000001c0800007a
:1038d000040000000200000001005a000000000087
:1038e000240800000200000000000000260800007c
:1038f0002000000000000000100800000800000088
:083900000000000000000000bf
:020000040000fa
:103908000000fa004b0007008001eb0012002000c5
:10391800a1c0b30010c4b30017f70700c1f907002e
:103928000080fa00000006000000fa000080fa009b
:10393800000006000000fa000080fa0000000600ff
:103948000000fa00d8f907000080fa00000006001d
:103958000000fa000080fa00000006000000fa00eb
:103968003bfe0700c0408800d14088000080fa0074
:10397800000006000000fa000080fa0000000600bf
:103988000600fa0040479800ce409000b0c3b3004c
:1039980080cf500002003e00c0c3b30040479800eb
:1039a800ce40900080c7b30080cf500002003600a0
:1039b80080c7b300404798004e4090000080fb004d
:1039c8006a005000cf80de00e7f30700323323009f
:1039d80033d323003cf4070002002000030824002e
:1039e80023f30700008fbe0012c0b3001e00be0004
:0c39f800bef807000080fa000000060086
:020000040000fa
:103a0400f03fb1000180b10006003500ee0309006b
:103a140000000000403fb1000180b100fbff3d0009
:103a24001000b000203fb000020035000080090003
:083a3400000000000000060084
:020000040000fa
:103a3c000000fa00090007003cff07004ff80700e0
:103a4c0080fe0700a7fa070001ff0700a7fb07008d
:103a5c00f4fb07000080fa00000006000000fa00ea
:103a6c00413a800000fc2f00008060000000a000a4
:103a7c00403a88000080fa00000006000000fa00be
:103a8c00104180000000e000020032006000b8002d
:103a9c0062ff07000080fa00000006000000fa0038
:0c3aac0096ff070068fd0700ffff3700d1
:020000040000fa
:0200000401f009
:04000c008000000070
:020000040000fa
:0200000401f009
:04001c00feff0000e3
:00000001FF
